S10700001728000AAF
S1130010A7150311A8150F3012280E301228EE0B65
S123002081150F3C28118315A71127110D00CC21863A532106303A28A21D06302028AA1954
S1230040010B9415000B9515000B9615000BF021A219140B221203301D28100B2A12033050
S12300603828000B2D17033138285621010BAD15AA1D1A2806341A28A21D06344028AA194B
S1230080010B9415000B9515000B9615000BF021A219140B221203303D28100B2A120330F0
S12300A05F285621010BAD15B80B94150B0B9515000B9615000BF0215321AD1D6220AA1DEB
S12300C01A280C00A31DA41D06308628A31DA41D000B241203316E28140B231203347F28AB
S12300E006307328AA19010B9415000B9515000B9615000BF021A3190335A4196828100BD0
S12301002A1203308528AA1D4C29AA1D4D21A1152116010803310829A31DA41D000B241231
S123012003319428030B23120334BA285F21A6151616A515320B2B120330AE28000B261288
S12301400331A428500B25120330A828A919A928A91D030B29120330AE28AC38110B9415B2
S1230160000B9515000B9615000BF021A3190335A4198E28A91DAC300829AC3C5621880BC8
S12301809415130B9515000B9615000BF021A31DA41D010B24120331CF28F40B23120334BF
S12301A0FA285F21A6151616A515000B26120331DB28500B25120330DF28A919E028A91D22
S12301C0170B29120330EE28AC38140B9415000B9515000B9615000BF021FA28140B941558
S12301E0000B9515000B9615000BF021A3190335A419C928A91DA11DAC34A1192116010874
S123020003310429AC3C6428AC3408295321AD1D000B2D1703316428400BCB15040BC11597
S1230220EE0B81150E380B00000000000E3C330B2B1203341C29AB19A31DA41D000B241213
S123024003312429030B231203344A295F21A6151616A515320B2B1203303E29000B2612B4
S123026003313429500B251203303829A9193929A91D030B291203303E29AC38110B94154D
S1230280000B9515000B9615000BF021A3190335A4191E29A91D64280C0086345129010B3D
S12302A05229020B0C005C2106390C005921063D0C00C63D863D0C00C6398D3D0C008E3FA1
S12302C0EB21063A010B9415000B9515000B9615000B27221C221C229C1D9D1D9E1D9F1DF4
S12302E0EB21063E1C22063A1C22ED21020B1F1203307E29120B1F1203308F291E16A015A6
S1230300033C20149E15A01D0636A0192016010803318C291E389D29063EEB219D29033C68
S12303209C149D14A01D0636A0192016010803319B291C389D29063EEB211C229F19130BF1
S12303401F1203307029EB21063E1C228E3B1E1604080331C8299D33B8291C1C9E151D1C0B
S12303609F15010B1E1F9C159D1D9D141F169D1F050B1D120331BE29DC0B1C120334C429DC
S12303801C1696151D16CB29000B9615000BCB29000B9615000B0C008E3FDB21D321E8210D
S12303A0E5218E3B0C00861DC61DFF0B8D15FF0B8B158C1D0C003F0B84152F0BBF15841B3D
S12303C0801DBF1ADF29BF1D0C00C6388D3C0C0046380B3C0C00463E0C00463A0D3E0C00A8
S12303E09A151616991515169815141697151716181719171A1703351B2A130B9B15020BAD
S12304009C151B169D151C169E15FF0B9B1F03309C1B1D161E1703350F2A0000012AFF0BA3
S1230420971FFF0B0330981FFF0B0330991FFF0B03309A1FF7290C00020B9A151A1699155D
S12304409A1B000B19170335262A1E2A0C009A151616991515169815141697151716181739
S123046019171A170335492A610B9B15000B1B1703353D2A00009B1B362AFF0B971FFF0B94
S12304800330981FFF0B0330991FFF0B03309A1F2E2A0C00010A000A010A000A2D0A000AB4
S10704A0010A000A3F
S3050000806218
S903FFFFFE
