S10700001728000AAF
S1130010A6150311A7150F3012280E301228EB0B6A
S123002081150F3C27118315A61126110D00B921863A402106303A28000B2C1703313A2899
S1230040A31D06302428A919010B9415000B9515000B9615000BDD21A319140B231203302C
S12300602128100B2912033038284321010BAC15A91D1A2806341A28A31D06344028A91971
S1230080010B9415000B9515000B9615000BDD21A319140B231203303D28100B2912033002
S12300A05F284321010BAC15B80B94150B0B9515000B9615000BDD214021AC1D6220A91D27
S12300C01A280C0006308328A11DA21D06306928A919010B9415000B9515000B9615000BBC
S12300E0DD21A1190335A219000B221203317A28140B211203306628100B291203308228F6
S1230100A91D3929A91DA11DA21D4C21A5151616A4150F0B2A1203309D28000B25120331A0
S12301209328780B241203309728A8199828A81D030B281203309D282B39140B9415000B98
S12301409515000B9615000BDD21A1190335A219000B22120331AE28030B2112033085281B
S1230160A81D2B31F6282B3D4321880B9415130B9515000B9615000BDD21A11DA21D4C21C3
S1230180A5151616A415000B25120331C928780B24120330CD28A819CE28A81D020B2812B1
S12301A00330D528A81D2B39E828140B9415000B9515000B9615000BDD21A1190335A219E9
S12301C0010B22120331E628F40B21120330BF28A81DA11D2B35A119211601080331F22822
S12301E02B3D62282B35F6284021AC1D000B2C1703316228400BCB15040BC115EB0B8115B9
S12302000E380B00000000000E3C100B2A1203340A29AA19A11DA21D4C21A5151616A41532
S12302200F0B2A1203302429000B251203311A29780B241203301E29A8191F29A81D030B1C
S12302402812033024292B39140B9415000B9515000B9615000BDD21A1190335A219000B88
S1230260221203313529030B211203300C29A81D62280C0086303E29010B3F29020B0C0006
S1230280492106390C004621063D0C00C63D863D0C00C6398D3D0C008E3FD821063A010B36
S12302A09415000B9515000B9615000B1422092209229C1D9D1D9E1D9F1DD821063E09223D
S12302C0063A0922DA21020B1F1203306B29120B1F1203307C291E16A015033C20149E157A
S12302E0A01D0636A01920160108033179291E388A29063ED8218A29033C9C149D14A01DDD
S12303000636A01920160108033188291C388A29063ED82109229F19130B1F1203305D2991
S1230320D821063E09228E3B1E1604080331B5299D33A5291C1C9E151D1C9F15010B1E1F77
S12303409C159D1D9D141F169D1F050B1D120331AB29DC0B1C120334B1291C1696151D160F
S1230360B829000B9615000BB829000B9615000B0C008E3FC821C021D521D2218E3B0C00D4
S1230380861DC61DFF0B8D15FF0B8B158C1D0C003F0B84152F0BBF15841B801DBF1ACC29CD
S12303A0BF1D0C00C6388B3C0C0046380B3C0C00463E0C00463A0D3E0C009A1516169915BF
S12303C015169815141697151716181719171A170335082A130B9B15020B9C151B169D15D5
S12303E01C169E15FF0B9B1F03309C1B1D161E170335FC290000EE29FF0B971FFF0B03308D
S1230400981FFF0B0330991FFF0B03309A1FE4290C00020B9A151A1699159A1B000B191793
S12304200335132A0B2A0C009A151616991515169815141697151716181719171A170335D6
S1230440362A610B9B15000B1B1703352A2A00009B1B232AFF0B971FFF0B0330981FFF0B92
S12104600330991FFF0B03309A1F1B2A0C00010A000A010A000A2C0A000A010A000AC9
S3050000806218
S903FFFFFE
