S10700001728000AAF
S1130010A5150311A6150F3012280E301228EB0B6C
S123002081150F3C26118315A51125110D006721863AEE20F120010BAB15B80B94150B0B5E
S12300409515000B9615000B8B21EE20AB1D2B20A81D1A280C00E820A1152116010803311F
S1230060A428A11DA21DFA20A4151616A3150F0B291203304B28000B241203314128780B20
S1230080231203304528A7194628A71D030B271203304B282A39140B9415000B9515000BBD
S12300A09615000B8B21A1190335A219000B221203315C28030B211203303328A71D2A3148
S12300C0A4282A3DF120880B9415130B9515000B9615000B8B21A11DA21DFA20A4151616EB
S12300E0A315000B241203317728780B231203307B28A7197C28A71D020B27120330832856
S1230100A71D2A399628140B9415000B9515000B9615000B8B21A1190335A219010B22121F
S123012003319428F40B211203306D28A71DA11D2A35A119211601080331A0282A3D2B2840
S12301402A35A428EE20AB1D000B2B1703312B28400BCB15040BC115EB0B81150E380B00D9
S1230160000000000E3C100B29120334B828A919A11DA21DFA20A4151616A3150F0B291279
S12301800330D228000B24120331C828780B23120330CC28A719CD28A71D030B27120330F7
S12301A0D2282A39140B9415000B9515000B9615000B8B21A1190335A219000B22120331D4
S12301C0E328030B21120330BA28A71D2B280C008630EC28010BED28020B0C00F72006393D
S12301E00C00F420063D0C00C63D863D0C00C6398D3D0C008E3F8621063A010B9415000B71
S12302009515000B9615000BC221B721B7219C1D9D1D9E1D9F1D8621063EB721063AB72117
S12302208821020B1F1203301929120B1F1203302A291E16A015033C20149E15A01D063682
S1230240A01920160108033127291E383829063E86213829033C9C149D14A01D0636A019C9
S123026020160108033136291C383829063E8621B7219F19130B1F1203300B298621063ED7
S1230280B7218E3B1E160408033163299D3353291C1C9E151D1C9F15010B1E1F9C159D1DE1
S12302A09D141F169D1F050B1D1203315929DC0B1C1203345F291C1696151D166629000B25
S12302C09615000B6629000B9615000B0C008E3F76216E21832180218E3B0C00861DC61D75
S12302E0FF0B8D15FF0B8B158C1D0C003F0B84152F0BBF15841B801DBF1A7A29BF1D0C005E
S1230300C6388B3C0C0046380D3C0C00463E0C00463A0D3E0C009A1516169915151698156D
S1230320141697151716181719171A170335B629130B9B15020B9C151B169D151C169E15BB
S1230340FF0B9B1F03309C1B1D161E170335AA2900009C29FF0B971FFF0B0330981FFF0BF5
S12303600330991FFF0B03309A1F92290C00020B9A151A1699159A1B000B19170335C12925
S1230380B9290C009A151616991515169815141697151716181719171A170335E429610BC6
S12303A09B15000B1B170335D82900009B1BD129FF0B971FFF0B0330981FFF0B0330991FBA
S11D03C0FF0B03309A1FC9290C00010A000A010A000A2B0A000A010A000AAD
S3050000806218
S903FFFFFE
