S10500001828BA
S1130010BB150311BC150F3013280E3013289C0B8D
S123002081153D380F3C3C118315BB113B110D002921A81D040B2812033419282816FC2032
S1230040A520FC0BB71E000BA915000BB517000BB6172816B7172916B81735169415361629
S123006095153716961538164020F40B9415010B9515000B9615000B5521A8191A280C0088
S1230080A2151616A1151516A01514169F152321090B9415000B9515000B9615000B552118
S12300A026212D0B9415000B9515000B9615000B8121A31D200B231203349A282216A715EF
S12300C02116A6152016A5151F16A4152316000903357128A713A613A513A413010E033015
S12300E06A28243086282321060B9415000B9515000B9615000B81212621110B9415000B3B
S12301009515000B9615000B812198282321060B9415000B9515000B9615000B81212621B1
S1230120060B9415000B9515000B9615000B8121A3195A282321060B9415000B9515000BED
S12301409615000B812126210C00B91DBA1D18210F0B9415000B9515000B9615000B81212F
S12301600E383D30B7283D3CB9190335BA19020B3A120331BD28490B39120330C6280E3C17
S1230180FF0BB515B615B715B815FB280634D1280634D1283D30C8283D3CB9190335BA19E7
S12301A0BD38BD30B1280630B128BD3C0E3C000B3A120331DD28030B39120334E428B51D30
S12301C0B61DB71DB81DFB280F0B391F9C159D1D9D143A169D1F1C1694151D169515110B0E
S12301E09615000BA4219D151616B5159C151D16B615B71DB81D0C009A15040B1A12033453
S12302001729010B8A15080B1A1F03348A1982150C290F2912291529863E063E1729863E40
S1230220063A1729863A063E1729863A063A0C004C3B040B9415000B9515000B9615000B35
S123024081214C3F0C00C63D863D0C00C6398D3D0C008E3F42213A2131214F214C218E3B37
S12302600C00D20BCD15D20BCE156A0BCF15C00BCC150C00861DC61DFF0B8D15FF0B8B1502
S12302808C1D0C003F0B84152F0BBF15841B801DBF1A4629BF1D0C0046380D3C0C00020B68
S12302A0C1159C0B81150E3C0C009A151616991515169815141697151716181719171A17DD
S12302C003358029130B9B15020B9C151B169D151C169E15FF0B9B1F03309C1B1D161E17CF
S12302E00335742900006629FF0B971FFF0B0330981FFF0B0330991FFF0B03309A1F5C2972
S12303000C009A151616991515169815141697151716181719171A170335A329610B9B15B9
S1230320000B1B170335972900009B1B9029FF0B971FFF0B0330981FFF0B0330991FFF0B62
S123034003309A1F88290C00AB151616AA151516AD151416AC15AE1DAF1D080BB0152A16BE
S1230360B1152B16B2153130BB292C16AE1F2D1603342D18AF1F2A16B1152B16B215000BB1
S1230380B237FF0BB415B3153230D429B11D2E16B3152F16AF15B415000B331FAE152C1668
S12303A0B21503343218AF1F2A16B1152B16B215033C3213AB153113AA15033CAC14AD140E
S11B03C03016B115311BB015000B30170331AF292E1696152F160C0066
S3050000806218
S903FFFFFE
