S10700001728000AAF
S1130010A7150311A8150F3012280E301228EE0B65
S123002081150F3C28118315A71127110D00C621863A4D2106303A28000B2D1703313A287B
S1230040A21D06302428AA19010B9415000B9515000B9615000BEA21A219140B2212033021
S12300602128100B2A12033038285021010BAD15AA1D1A2806341A28A21D06344028AA1961
S1230080010B9415000B9515000B9615000BEA21A219140B221203303D28100B2A120330F6
S12300A05F285021010BAD15B80B94150B0B9515000B9615000BEA214D21AD1D6220AA1DFD
S12300C01A280C00A31DA41D06308628A31DA41D000B241203316E28140B231203347F28AB
S12300E006307328AA19010B9415000B9515000B9615000BEA21A3190335A4196828100BD6
S12301002A1203308528AA1D4629AA1DA31DA41D000B241203318E28030B23120334B428C0
S12301205921A6151616A515320B2B120330A828000B261203319E28500B25120330A22857
S1230140A919A328A91D030B29120330A828AC38110B9415000B9515000B9615000BEA21D2
S1230160A3190335A4198828A91DAC300229AC3C5021880B9415130B9515000B9615000B2F
S1230180EA21A31DA41D010B24120331C928F40B23120334F4285921A6151616A515000BBB
S12301A026120331D528500B25120330D928A919DA28A91D170B29120330E828AC38140BDF
S12301C09415000B9515000B9615000BEA21F428140B9415000B9515000B9615000BEA218C
S12301E0A3190335A419C328A91DA11DAC34A119211601080331FE28AC3C6428AC34022928
S12302004D21AD1D000B2D1703316428400BCB15040BC115EE0B81150E380B0000000000A3
S12302200E3C330B2B1203341629AB19A31DA41D000B241203311E29030B23120334442997
S12302405921A6151616A515320B2B1203303829000B261203312E29500B25120330322983
S1230260A9193329A91D030B291203303829AC38110B9415000B9515000B9615000BEA218F
S1230280A3190335A4191829A91D64280C0086344B29010B4C29020B0C00562106390C0080
S12302A05321063D0C00C63D863D0C00C6398D3D0C008E3FE521063A010B9415000B951553
S12302C0000B9615000B2122162216229C1D9D1D9E1D9F1DE521063E1622063A1622E721BA
S12302E0020B1F1203307829120B1F12033089291E16A015033C20149E15A01D0636A019F4
S123030020160108033186291E389729063EE5219729033C9C149D14A01D0636A01920160F
S12303200108033195291C389729063EE52116229F19130B1F1203306A29E521063E1622D9
S12303408E3B1E1604080331C2299D33B2291C1C9E151D1C9F15010B1E1F9C159D1D9D1489
S12303601F169D1F050B1D120331B829DC0B1C120334BE291C1696151D16C529000B96154D
S1230380000BC529000B9615000B0C008E3FD521CD21E221DF218E3B0C00861DC61DFF0B7A
S12303A08D15FF0B8B158C1D0C003F0B84152F0BBF15841B801DBF1AD929BF1D0C00C6384A
S12303C08D3C0C0046380B3C0C00463E0C00463A0D3E0C009A151616991515169815141681
S12303E097151716181719171A170335152A130B9B15020B9C151B169D151C169E15FF0BBB
S12304009B1F03309C1B1D161E170335092A0000FB29FF0B971FFF0B0330981FFF0B03304C
S1230420991FFF0B03309A1FF1290C00020B9A151A1699159A1B000B19170335202A182A96
S12304400C009A151616991515169815141697151716181719171A170335432A610B9B15D7
S1230460000B1B170335372A00009B1B302AFF0B971FFF0B0330981FFF0B0330991FFF0BDF
S11B048003309A1F282A0C00010A000A010A000A2D0A000A010A000A96
S3050000806218
S903FFFFFE
